:2000000000000120510500005705000059050000710500007105000071050000000000004D
:200020000000000000000000000000007105000071050000000000007105000071050000E8
:200040007105000071050000710500007105000071050000710500007105000071050000F0
:200060007105000071050000710500007105000071050000710500007105000071050000D0
:200080007105000071050000710500007105000071050000710500007105000071050000B0
:2000A000710500007105000071050000710500007105000071050000710500007105000090
:2000C000710500007105000071050000710500007105000071050000710500007105000070
:2000E000710500007105000071050000710500007105000071050000710500007105000050
:2001000071050000710500007105000071050000710500007105000071050000710500002F
:2001200071050000710500007105000071050000710500007105000071050000710500000F
:200140004C490A786FF00C00104308704A49002008704A49087840F0FF00087048490020BC
:2001600008704849087840F0FF00087046490020087046490A786FF0180010430870444948
:200180000020087043490A786FF02000104308704149002008704149087840F0C0000870DB
:2001A0003F49002008703F49087840F0FF0008703D49002008703D490A786FF00300104395
:2001C00008703B49002008703A49087840F0FF0008703949002008703849087840F0FF0097
:2001E000087037490020087036490A886FF03000104308803449002008802149087840F0B5
:200200000100087048F23420C0F20000401EFDD100BF00BF1A49087820F001000870704758
:2002200008B52A494FF4B5400880FFF789FF2849086820F003000860264946F65A10086077
:2002400025490A6840F20110104308602149002008602249086840F0040008602048214985
:200260001F4A03684FF60F7018400143116030BF00BFFEE7044C0040024C0040054C004097
:20028000034C0040244C0040224C0040254C0040234C0040444C0040424C0040454C0040A2
:2002A000434C0040644C0040624C0040654C0040634C0040844C0040824C0040854C004082
:2002C000834C0040244D0040224D00400C48004004000140000801400408014010ED00E063
:2002E00000000140C0005A69002A4AD05FEA000C8B071CD1830722D1102A08D370B4103A22
:2003000078C978C0103AFBD270BC103238D0042A2CD3082A05D30C2A24BF08C908C008C91D
:2003200008C008C908C092072AD0920F22E00B780370491C401C521E22D08B07F7D1C307E9
:2003400014D18307D8D0121F12D308C903801B0C4380001D121FF8D20AE008C903701B0AC7
:2003600043701B0A83701B0AC370001D121FF4D2121D05D00B780370491C401C521EF9D151
:20038000604670471448B0B5B0F1FF3F01D000F0B9F8124D1248A84210D01248124CA042D1
:2003A0000CD0001B083CC71054F8080F017855F821206168401C90477F1EF5D100F0FCF87E
:2003C0000A4D0B4CA54205D002E054F8040B8047A542FAD1B0BDC046FFFFFFFFD4050000B5
:2003E000DC050000E4050000DC0500000000000000000000F8B5844640F6FF741CF8013BE2
:20040000002210E0481B401E10F8015B7F1E01F8015BF9D103E01CF8010B01F8010B521C73
:200420005B08082AEADA5808F5D21CF8010B1CF8015B05F00F07FF1CC5F30315122F45EA46
:20044000001508D11CF8016B300A24BF1CF8010B60F3DF16F719AC42D4D1F8BD4EF6885134
:20046000CEF2000108684FF0F00340EA034008600C4885460C4885446F4607208743BD465F
:200480000A486F46076000F096F800F092F8002801D0FFF777FF00F06FF8012000F00EF823
:2004A000FEE7C04600FE0020000200001400002000BF704708B5FFF7FBFFFEE738B50D4CAF
:2004C0000546A06820B10C48B0F1FF3F00D080470A4800688047606810B1014628468847A0
:2004E000206800B18047064800688047FFF7E2FF38BDC04600000020FFFFFFFF0C00002065
:2005000010000020F8B506460F4D104F7388002417E0A00000EBC400321851689068D2685D
:2005200052B9AF420BD00A7855F822200346491C08461946904701E0FFF7D6FE7388641C7B
:20054000A4B2A342E5DCF8BDD4050000DC050000FFF784BF7047FEE70649087880F001001B
:20056000087042F62A40C0F20A00401EFDD1F3E7FEE7C046024C00400449B1F1FF3F07BF33
:200580000021081C0868091DFFF74ABEFFFFFFFF0349086070470249091F086070477047D2
:1C05A00010000020D0F80320C31D08461946FFF79BBE0120704770477047000002
:2005C00000350000040100809F050033013100FFF0000000F5030000A5050000C005000002
:0405E00000000020F7
:00000001FF
